:020000040800F2
:100000000809002089010008DF120008DB1200083F
:10001000DD1200088F0200087117000800000000C0
:100020000000000000000000000000006D13000848
:100030009102000800000000E1120008A913000866
:10004000A3010008A3010008A3010008A301000800
:10005000A3010008A3010008A3010008A3010008F0
:10006000A3010008A3010008A3010008A3010008E0
:10007000A3010008A3010008A3010008A3010008D0
:10008000A3010008A3010008A3010008A3010008C0
:10009000A3010008A3010008A3010008A3010008B0
:1000A000A3010008A3010008A3010008A3010008A0
:1000B000091400083114000879140008A30100088D
:1000C000A3010008A3010008A3010008A301000880
:1000D000A301000865170008A3010008A301000898
:1000E000A3010008A3010008A301000800F002F822
:1000F00000F03AF80AA090E8000C82448344AAF188
:100100000107DA4501D100F02FF8AFF2090EBAE885
:100110000F0013F0010F18BFFB1A43F0010318473B
:10012000C0190000E0190000103A24BF78C878C157
:10013000FAD8520724BF30C830C144BF04680C60ED
:10014000704700000023002400250026103A28BF35
:1001500078C1FBD8520728BF30C148BF0B60704739
:100160001FB51FBD10B510BD00F058F81146FFF7C0
:10017000F7FF01F069FB00F076F803B4FFF7F2FF38
:1001800003BC00F07DF8000009488047094800479B
:10019000FEE7FEE7FEE7FEE7FEE7FEE7FEE7FEE737
:1001A000FEE7FEE704480549054A064B7047000094
:1001B00007140008ED0000080803002008090020CB
:1001C00008050020080500204FF0000200B5134686
:1001D00094469646203922BFA0E80C50A0E80C5067
:1001E000B1F12001BFF4F7AF090728BFA0E80C5018
:1001F00048BF0CC05DF804EB890028BF40F8042B11
:1002000008BF704748BF20F8022B11F0804F18BF7D
:1002100000F8012B7047704770477047754600F033
:100220002BF8AE4605006946534620F00700854688
:1002300018B020B5FFF7B6FFBDE820404FF000062C
:100240004FF000074FF000084FF0000BAC46ACE851
:10025000C009ACE8C009ACE8C009ACE8C00921F0AD
:1002600007018D46704710B50446AFF30080204665
:10027000BDE81040FFF781BF004870471000002024
:1002800001491820ABBEFEE7260002007047FEE7DA
:100290007047EFF3108072B6FEE710B590F82110AA
:1002A000022911D10168D0E90F230C6824F00E0453
:1002B0000C600C6824F001040C60012180F821100E
:1002C00099405160002102E0042181630121002254
:1002D00080F82020084610BD10B590F821100229A2
:1002E0001BD102681D4B11689A4221F00E0111606A
:1002F000116821F001011160174912D0184B9A4280
:1003000011D0184B9A4210D0174B9A4210D0174B6D
:100310009A4210D14FF4803315E00421816301200B
:1003200010BD01230FE010230DE04FF480730AE0AD
:100330004FF4805307E001F168044FF08073A2424C
:1003400008BF4FF480130B604FF480710184416B40
:1003500001B18847002010BD04000240080002409F
:100360001C0002403000024044000240580002409D
:100370002DE9FC4F5A4A04234FF0000B4FF00108BF
:100380004FF00F0E4FF000090025904208BF0323E5
:1003900000930B6833FA05F208BFBDE8FC8F08FA3A
:1003A00005F2134200F097804F68032F16D9112FE2
:1003B00024D0122F26D04D4B9F4213D04C4B9F423E
:1003C00010D04C4B9F420DD04B4B9F420AD04B4B11
:1003D0009F4207D04A4B9F4204D020E0DFE807F05D
:1003E0000216191D8B6833B1012B14BF42610261E3
:1003F0004FF0080913E04FF0040910E0CB6803F157
:1004000004090CE0CB6803F10C0908E0D1F80C906A
:1004100005E0CB6803F1080901E04FF000095B46F5
:100420000646082D28BF203B28BF043637680EFA41
:1004300003F427EA040409FA03F323433360CB7976
:10044000DB0648D5674B274E1C461B68A6F57E7613
:1004500043F00103236023680BF00C0C03F001034D
:100460000193019CAC0856F824700EFA0CF327EAAD
:10047000030A244B984208D0234B984207D0234BC1
:100480009842009B08BF022302E0002300E0012302
:1004900003FA0CF343EA0A0346F824304F68114C80
:1004A000FB03236854BF934313432360BB03636878
:1004B00054BF934313436360FB02A36854BF934349
:1004C0001343A360BB02084B1C461B6854BF23EABE
:1004D00002021A4322600BF1040B013559E700BFF9
:1004E00000140140000401400C0401400000111000
:1004F0000000121000002110000022100000311036
:100500000000321000080140000C014000100140C2
:100510008068084018BF01207047C26802EA0103E2
:10052000914341EA034101617047002A08BF090471
:100530000161704705480068704700BF1A480349C9
:1005400000780A6810440860704700BF000300206C
:1005500080B58F48016841F010010160032000F070
:100560006FF80F2000F004F800F020F8002080BDA4
:1005700070B50D4E044630784FF47A71B1FBF0F04F
:1005800090490968B1FBF0F000F0E2FA01250F2C68
:1005900008D838B94FF0FF3021460022002500F07E
:1005A00033F87460284670BD0000002082B00D480A
:1005B0000222016841F001010160016801F00101BE
:1005C00001910199416841F080514160406800F01B
:1005D0008050009000980448016862F31A6101603D
:1005E00002B070471810024004000140002808D4EF
:1005F00000F01F01012202FA01F1024A400942F80B
:100600002010704700E100E0B0B5134B4FF0FF350C
:100610001B68C3F30223DC1E83F0070338BF0024EA
:10062000042B28BF042305FA03F3994305FA04F3C6
:10063000A1409A431143BDE8B04001F09BB800BF10
:1006400005494FF6FF030A681A4060F30A2203487F
:1006500010430860704700BF0CED00E00000FA0591
:100660002DE9F843002800F0908088464849044668
:10067000086800F0070040450AD2086820F007002B
:1006800040EA08000860086800F0070040457CD197
:1006900020685B4B8946810711D5410703D519684E
:1006A00041F4E0611960010703D5196841F4605114
:1006B0001960A1681A6822F0F00211431960C0079E
:1006C0002BD06068012804D153F8041C890309D495
:1006D0005BE053F8041C022802D1890102D454E0E3
:1006E000890752D519681D4621F003010843186097
:1006F000FFF720FF064641F28837606829682B46DD
:1007000001F00C01B1EB800F07D0FFF713FF801B46
:10071000B842F2D90320BDE8F883D9F8000000F010
:10072000070040450DD9D9F8000020F0070040EA45
:100730000800C9F80000D9F8000000F007004045A3
:1007400023D12068410705D5E1681A6822F4E062E8
:1007500011431960000706D52069196821F460511A
:1007600041EAC00018601C4600F030F82168094AD0
:10077000C1F30311515CC840F349086006480068A2
:10078000FFF7F6FE0020BDE8F8830120BDE8F883FE
:1007900000200240C81A000804000020EA48184956
:1007A00000680968084AC1F30221515CC8407047DB
:1007B000E548134900680968034AC1F3C221515C46
:1007C000C840704708000020D81A000810B50C492E
:1007D0000C480A6802F00C03082B07D1C2F38343CC
:1007E00009A4E35CD20302D40C48584310BD096845
:1007F00009A2C1F34041515C5843B0FBF1F010BD78
:100800000410024000127A000203040506070809DA
:100810000A0B0C0D0E0F10100102000000093D0024
:100820002DE9FC41002800F0CC8004460078C44E3D
:10083000C0074AD0706800F00C00042817D0706818
:1008400000F00C00082802D17068C0030FD4606863
:1008500098B1B0F5803F06D03168B0F5A02F21D116
:1008600041F480203060306840F4803020E030680F
:1008700080032AD5606840BBA3E0306820F4803054
:100880003060306820F480203060FFF753FE05466A
:100890003068800319D5FFF74DFE411B0320642902
:1008A000F6D94AE121F480303060306820F48020AD
:1008B0003060FFF73FFE05463068800305D4FFF740
:1008C00039FE401B6428F7D90AE1207880072CD52F
:1008D000706810F00C0F07D0706800F00C0008284A
:1008E00009D17068C00306D43068800716D5206926
:1008F000012813D065E021699248002900F0B580F5
:1009000001210160FFF716FE05463068800705D417
:10091000FFF710FE401B0228F7D9E1E0606931685B
:1009200021F0F80141EAC0003060207800072ED5A0
:10093000A06978B183480121C0F88014FFF7FAFD5F
:100940000546706A800715D4FFF7F4FD401B0228A6
:10095000F7D9C5E07B480021C0F88014FFF7EAFD15
:100960000546706A800712D5FFF7E4FD401B022898
:10097000F7D9B5E074484FF4FA510068B0FBF1F0D4
:10098000019000BF0198411E00280191F9D1207803
:10099000400719D4E769002F00F0CE80706800F09E
:1009A0000C00082843D1012F0BD0216A706800F495
:1009B00080328A4205D1616A00F47010884200F0EA
:1009C000BB800120BDE8FC81F069C0000BD4F06958
:1009D0004FF0010840F08050F061F06900F0805065
:1009E0000090009801E04FF00008584F3868C005AB
:1009F0000FD4386840F480703860FFF79BFD0546DF
:100A00003868C00505D4FFF795FD401B6428F7D969
:100A100066E0E068C8B3012805D0316A05284BD1EB
:100A200041F004003062306A40F001004AE045497C
:100A3000002088460866FFF77DFD0546022F0AD193
:100A400047463068800157D5FFF774FD411B0320EE
:100A50000229F6D971E0306880016DD5FFF76AFD93
:100A6000411B03200229F6D967E000210160FFF74E
:100A700061FD0546306880077FF557AFFFF75AFDE7
:100A8000411B03200229F5D957E0306A20F001000C
:100A90003062306A20F004003062FFF74BFD0546FB
:100AA00041F28837306A80071DD5FFF743FD411BAF
:100AB0000320B942F6D940E021F001003062306AEB
:100AC00020F004003062FFF735FD054641F288371B
:100AD000306A800707D4FFF72DFD401BB842F7D9D5
:100AE0000320BDE8FC81B8F1000F3FF453AFF0697B
:100AF00020F08050F0614DE7206AB0F5803F05D1CD
:100B0000A168726822F4003211437160616A08437F
:100B1000716821F474110843706001203866FFF792
:100B200009FD04463068800106D4FFF703FD011B70
:100B300003200229F6D900E00020BDE8FC8100BFB7
:100B400000100240000042420800002000700040F7
:100B5000411E0020B0EB116F1CBF01207047044AFA
:100B6000F023516003490B700721906011607047BA
:100B700010E000E023ED00E07047704710B590F8FA
:100B80003C300222012B24D080F83D20012280F845
:100B90003C2002680B685468B2F1804F24F0700466
:100BA00044EA03049368546008D0524CA24205D032
:100BB000514CA24202D0514CA24204D1496823F0C8
:100BC0008003194391600022012180F83C2080F8C5
:100BD0003D10104610BD00BF40B310B5044690F85C
:100BE0003D0028B9002084F83C00204600F020F8A1
:100BF000022084F83D002068211D00F089FC0120BE
:100C000084F8460084F83E0084F83F0084F84000F1
:100C100084F8410084F8420084F8430084F84400DA
:100C200084F8450084F83D00002010BD0120704785
:100C30001FB500683149884212D02E4988421BD026
:100C4000B0F1804F18BF1FBD16481C24016841F049
:100C500001010160006800F001000390039816E0B4
:100C600010481E24016841F004010160006800F092
:100C70000400019001980AE00A481D24016841F02F
:100C800002010160006800F0020002900298204614
:100C900000210022FFF7B8FC204604B0BDE8104058
:100CA000FFF7A4BC1C10024090F83D1001291CBFA6
:100CB00001207047022180F83D100068C168B0F142
:100CC000804F41F00101C16008D00A49884205D037
:100CD0000949884202D00949884204D1816801F05B
:100CE0000701062903D0016841F0010101600020DD
:100CF000704700BF00040040002C01400008004085
:100D0000B0B590F83C2004460220012A21D084F896
:100D10003D00012084F83C0020684FF677750246BC
:100D200052F8083FAB4313600B682BB1102B03D074
:100D3000202B18BF302B0DD1106820F07000184305
:100D400040F0070010600020012184F83C0084F886
:100D50003D10B0BD402B17D0502B22D0602B2DD092
:100D6000B3F5005F37D0702BEDD1D1E90103C9682D
:100D7000184340EA0120116821F47F4108431060C4
:100D8000106840F07700DDE74B68CA68194600F04C
:100D9000F7FB226852F8080F40F0470020F03000BF
:100DA000D0E74B68CA68194600F0EAFB226852F89F
:100DB000080F40F0570020F02000C3E74B68CA68D6
:100DC000194600F0EEFB226852F8080F40F0670069
:100DD00020F01000B6E7D1E90103C968184340EAE2
:100DE0000120116821F47F4108431060106840F42D
:100DF0008040A7E7704710B504460068016989077D
:100E000044BFC1685FEA817139D40169490744BFB1
:100E1000C1685FEA41713ED40169090744BFC168F6
:100E20005FEA017144D40169C90644BFC1685FEA41
:100E3000C16149D40169C9071CBFC1685FEAC171BA
:100E40004FD10169090644BFC1685FEA016150D40E
:100E50000169490644BFC1685FEA416151D4016933
:100E6000890644BFC1685FEA816100D410BD6FF09C
:100E7000200101612046BDE81040FFF77EBE6FF003
:100E800002010161012121778069800741D020465C
:100E9000FFF7B0FF43E06FF0040101610221217709
:100EA000806910F4407F3ED02046FFF7A3FF40E06A
:100EB0006FF00801016104212177C06980073CD0EF
:100EC0002046FFF797FF3EE06FF010010161082117
:100ED0002177C06910F4407F39D02046FFF78AFFA0
:100EE0003BE06FF001010161204600F03CF8206812
:100EF000A7E76FF0800101612046FFF73DFE206803
:100F0000A6E76FF040010161204600F02DF820684F
:100F1000A5E7204600F025F8204600F023F8002041
:100F20002077206871E7204600F01BF8204600F08B
:100F300019F80020207720686EE7204600F011F8AD
:100F4000204600F00FF80020207720686BE720464D
:100F500000F007F8204600F005F800202077206810
:100F600068E77047704770477047704770470000E8
:100F7000F8B5016804460868CA684E6900F02F0594
:100F800002F02003202D05D123B12046BDE8F84012
:100F900000F034BB5FEA007E07D006F0010686F061
:100FA000010712F4907F3FD1F7B31040C206226BC5
:100FB00028D5012A26D100200090086800904868B2
:100FC000009000984869400600F18380E08DA28D72
:100FD000E38D002B00F0D180101A020400F0CD80C8
:100FE000CA6822F49072CA604A6922F001024A611A
:100FF000202284F83E2000222263CA6822F01002D8
:10100000CA608DE0020600F19180400640F1B58093
:10101000C86820F04000C860202084F83D002046C9
:10102000BDE8F84000F058B9C50718BF12F4807544
:1010300003D0256C45F00105256400F004054FF050
:10104000010C8CEA95053D4303D1256C45F0020562
:10105000256400F002058CEA55053D4303D1256C5B
:1010600045F004052564334318BF0123BEF1000F8A
:1010700004D51BB1236C43F008032364236C002BBD
:101080007BD01040800603D5204600F0B7FA2168D7
:101090004869216C00F0400001F0080140185AD066
:1010A000204600F095FA2068416949064ED541690D
:1010B00021F040014161A06B002847D034494163D1
:1010C000FFF70AF9002858D0A06B416BBDE8F84043
:1010D0000847A06B026853689DB2002D4DD0A28DC9
:1010E00095424AD2E3858369202B17D0CA6822F43F
:1010F0008072CA604A6922F001024A614A6922F09C
:1011000040024A61202284F83E2000222263CA68FD
:1011100022F01002CA60FFF7C0F8A28DE08D101A0D
:1011200081B22046BDE8F840FFF71FBF94F83D00AC
:10113000212822D1A068B0F5805F01D1206980B15B
:10114000206A421C22620078486011E02046BDE817
:10115000F840FFF70BBF2046FFF708FF0020206490
:10116000F8BD206A30F8022B6FF35F2220624A60DC
:10117000E08C0138E084000400D0F8BDC86820F09D
:101180008000C860C86840F04000C860F8BD00BF7B
:10119000C515000850B310B5044690F83D0028B9B5
:1011A000002084F83C00204600F022F8242084F837
:1011B0003D002068C16821F40051C160204600F064
:1011C00077FA2068016921F490410161416921F0B9
:1011D0002A014161C16841F40051C1600020202111
:1011E000206484F83D1084F83E1010BD0120704743
:1011F00070B586B00026CDE90466CDE90266C34C21
:10120000006804F5405188422FD1194802AD0168A9
:1012100041F480410160016801F48041019101992C
:10122000016841F0040101600068294600F00400F3
:10123000019003200590022003904FF4007002906B
:1012400001982046FFF794F84FF48060CDE90366DB
:10125000029020462946FFF78BF825200021002226
:10126000FFF7D2F92520FFF7C1F906B070BD00BF26
:101270001810024010B590F83E30202B06D1012402
:1012800029B122B190F83C30012B02D10224204632
:1012900010BD00240123046380F83C3000F048FABC
:1012A000F5E700000B4A0068516A884218BF704792
:1012B000907811188979232911BF0130012010700D
:1012C00000209070C0B21044811D02F12400012260
:1012D000FFF7D0BF780000207047FEE7FEE7FEE78B
:1012E00070470000F8B51E48017801290CD1002193
:1012F00001702C490420B0F59E7F05D00A5A0AB12E
:10130000013A0A520C30F6E71648017801290CD14F
:101310000021017023490620B0F59F7F05D00A5CAB
:101320000AB1013A0A540C30F6E71E4D0E4E002465
:101330000027B7F59C7F08BFF8BDE95971B1EA19DC
:10134000908858B9907948B9D079012806D1EC51E4
:10135000546090689460C6E9001088470C37E8E74D
:10136000E0000020E1000020700000207047000035
:10137000B0B5B1B10B4C0023B3F59C7F11D0E5584B
:101380008D4201D025B905E0E518AD68954201D040
:101390000C33F1E7E150E1188A604FF48072CA80A3
:1013A0008880B0BDEC000020FFF7C8B8B0B590B0A1
:1013B000002401A81421CDE90B44CDE90944FEF72E
:1013C00003FF4FF4E0100F904FF48030022501210D
:1013D0000E900D950A910894CDE9061006A8FFF726
:1013E0001FFA70B94FF480600594CDE903400F20D7
:1013F000CDE9010501A80221FFF732F908B910B0C3
:10140000B0BDFEF746FF704780B50848FFF7F3FC14
:101410003C480121017082880132828092B2B2F58B
:101420007A7F22BF41700021818080BD240200208C
:10143000B0B50F48344C007820800E48FFF7DBFC35
:10144000304D2088E988814201D2481C0DE058B116
:101450002E4CAA7820464FF40041FFF766F820464C
:101460004FF48051FFF759F80020E880B0BD00BF6D
:101470000E0000206C02002010B52148FFF7BBFCD5
:10148000204940F24C430A8900209A4238BF501C40
:10149000E94A08811278022A23D01B4A128802B333
:1014A000897880B2012909D10109182915D8E34C9E
:1014B0004FF4806104F58060012218E001091829C9
:1014C0000BD8DE4C4FF4806104F580600022FFF7FA
:1014D0002CF82046402101220EE0B0F5C87F08BF5D
:1014E00010BDD64C4FF4806104F580600022FFF7F8
:1014F0001CF8204640210022BDE81040FFF715B837
:10150000B4020020E00000200C0000200008014090
:1015100070B50368174AB0F1804F07D0164CA0424F
:1015200004D0904202D0154CA04203D14C6823F065
:1015300070032343B0F1804F07D00F4CA04204D07A
:10154000904202D00D4CA04203D1CC6823F44073EA
:1015500023434E690C688D6823F080033343904227
:101560000360C562846201D109691163012141618F
:1015700070BD00BF002C0140000400400008004086
:1015800010B5036A046A24F001040462846924F03B
:10159000F00444EA0212826123F00A02114301625C
:1015A00010BD036A23F010030362836923F47043C0
:1015B00043EA0232036A826123F0A00242EA011187
:1015C00001627047406A0021C185C184FFF7CEBC2B
:1015D0000168CA6822F49072CA604A6922F0010266
:1015E0004A61026B012A03D1CA6822F01002CA6064
:1015F000202180F83E1000210163704781B090F8EF
:101600003E10222920D18368B3F5805F08D101699B
:10161000002941D000F128010A6803685B680AE0EC
:10162000014651F8282F13B90369002BF5D0036840
:101630005B6803F07F0313700A6801320A60C18D92
:101640000139C185090401D001B070470168CA6839
:1016500022F02002CA60CA6822F48072CA604A6915
:1016600022F001024A61202280F83E20026B012A0A
:101670001BD100220263CB6823F01003CB600B6800
:10168000DB0605D500920A6800924968009100992E
:10169000818D01B0FFF769BC0168826A49686FF308
:1016A0005F2122F8021B8262C9E701B0FFF7FABD91
:1016B000B0B50446006804F108030ECB0569194370
:1016C00025F440552A430261C268636941F20C6502
:1016D000AA4319431143C1604169A26921F44071D1
:1016E000114341611149884202D0FFF757F801E0E8
:1016F000FFF75EF819214843D4E900126FF0630444
:101700009200B0FBF2F06422B0FBF2F303FB0400A2
:10171000322404EB0010B0FBF2F000F0F00202EB18
:10172000031200F00F0010448860B0BD0038014083
:10173000B0B500232224C285036480F83E400468CB
:10174000E56845F48075E560656945F0010565610A
:101750008285816280F83C30E06840F02000E060E3
:101760000020B0BD0148FFF703BC00BF9C00002073
:10177000FEE7000010B5074C00F00F032344044AB5
:10178000B0F1FF3FC8BF83180801187010BD00BF3B
:1017900000E400E014ED00E010B5104C4FF480417F
:1017A0002046FEF7B5FE68B1A4F580600821FEF77B
:1017B000AFFE48B120464FF40041FEF7A9FE30B914
:1017C000022002E0012000E003201B4908700449C8
:1017D00064200022BDE81040FFF7CABD000C0140A4
:1017E0009917000810B51448007803280DD0022876
:1017F00015D0012819D111484FF4006100220024AE
:10180000FEF793FE0E4804700FE00C484FF40061A1
:101810000022FEF78AFE0A480121017005E0074810
:101820004FF400610122FEF780FE064932200022BB
:10183000BDE81040FFF79CBDFC02002000080140FD
:10184000E2000020E517000886B0FEF781FEFFF7F2
:10185000ADFD00277D48059701687D4C41F02001D2
:101860000160016804F5823901F0200100910099BE
:101870000168002241F004010160016849F6400A54
:1018800001F0040100910099016841F00801016034
:10189000006849F6400100F00800009000984846B2
:1018A000FEF743FE04F58435284640F2014100224C
:1018B000FEF73BFE0124082002AEDFF898B1CDE927
:1018C0000374029048463146D8474FF00208484614
:1018D0003146CDE90478CDE902A4D84703A880E8D1
:1018E000900140F20140029028463146D8474FF41B
:1018F0004040CDE90374029028463146D847564807
:1019000009214FF4E1524FF080438761C0E9003272
:10191000C0E902710761CDE90477CDE90277CDE92D
:101920000077FFF759F9002840F08E804FF480507F
:101930000290494802A9FFF7E3F9002840F08480AB
:10194000454800246946CDE90044FFF717F9404DAA
:10195000002879D1414809214FF4E1528461C0E95E
:101960000052C0E902410461CDE90444CDE90244DA
:10197000CDE90044FFF730F9002865D14FF48050DD
:101980000290364802A9FFF7BBF900285CD1334822
:1019900000246946CDE90044FFF7F0F8002853D150
:1019A0002F4809214FF4E15205F580638461C0E9B5
:1019B0000032C0E902410461CDE90444CDE90244AA
:1019C000CDE90044FFF708F9F0BB4FF480500290D6
:1019D000234802A9FFF794F9B0BB214800246946C7
:1019E000CDE90044FFF7CAF870BB05F59A31334DD5
:1019F0004FF41652284640F8241F0C21C0E9012458
:101A0000C0E90344C0E90514C461FFF7C3FBD8B9BA
:101A100048464FF400610022FEF787FD0E48114C46
:101A2000A0470E48A0470E48A047FFF7DBFE00F096
:101A30001BF8FFF7B1FE05F12400A91D0122FFF7F5
:101A400019FCFFF74FFCFCE7FEF723FC18100240DF
:101A50000004004071030008240200206C020020F2
:101A6000B4020020A90C000870B5144801780129BF
:101A70001DD100210122818042708379104D6424A0
:101A8000D6B20644B679232E0ED0412B09D101EBF4
:101A9000810106EB410130398EB2B4FBF6F681804C
:101AA0002E7001324270EBE74FF4807101800549DE
:101AB0001E200022BDE87040FFF75ABC78000020CD
:101AC0000E000020691A000800000000000000005D
:101AD00001020304060708090000000001020304D4
:101AE000001B000800000020100000002801000872
:101AF000101B000810000020F80800004401000836
:101B000001000000100000000024F40001000100AA
:04000005080000ED02
:00000001FF
